:100000000C9437010C9468010C9468010C946801FD
:100010000C9468010C9468010C9468010C946801BC
:100020000C9468010C9468010C9468010C946801AC
:100030000C9468010C9468010C9468010C941A08E3
:100040000C9468010C9468010C9468010C9468018C
:100050000C9468010C9468010C9468010C941007CE
:100060000C9468010C94E4070C94BA070C94680192
:100070000C9468010C9468010C9468010C9468015C
:100080000C9468010C9468010C9468010C9468014C
:100090000C9490080C9468010C9468010C9468010D
:1000A0000C9468010C9468010C9468010C9468012C
:1000B0000C9468010C9468010C9468010C9468011C
:1000C0000C9468010C9468010C9468010C948407EA
:1000D0000C945A070C9468010C9468010C94680104
:1000E0000C9468010C949C030C945A030C94010228
:1000F0000C94F7020C94E9010C94ED010C940F029E
:100100000C9405020C94D4010C9406030C944C033B
:100110000C94E3010C94CA020C9409020C94F701AC
:100120000C94D8010C940E020C94F3010C94E90386
:100130000C94F3080C94DC010C94B1020C94E001D3
:100140000C9413020C94CE010C94FB0100002000CF
:100150002300260029002C002F003200000100009F
:1001600003010601090100000A0B02090C0D0E082B
:100170000703040100000000000000000000000070
:10018000000000000000000000000000000000006F
:10019000000012111000000000000000000000002C
:1001A000000000000000000000000000000022002D
:1001B000250028002B002E00310034000201000031
:1001C000050108010B0100002100240027002A007E
:1001D0002D003000330001010000040107010A0175
:1001E00005050505070508080808020202020A0AB3
:1001F00008080404040401010101010101010303D1
:10020000030303030303040707070C0C0C0C0C0C7B
:100210000C0C0202020206060606060606060B0B78
:100220000B0B0B0B0B0B01021020200808102040B9
:1002300010204080020102010804020101020408AA
:100240001020408080402010080402018004020138
:100250008040201008040201080402010102040881
:10026000102040800102040810204080F30811246F
:100270001FBECFEFD1E2DEBFCDBF00E00CBF2FE04D
:10028000AAE3B3E001C01D92A432B207E1F713E084
:10029000A0E0B2E0ECEAFEE200E00BBF02C0079093
:1002A0000D92AA33B107D9F711E0C7E3D1E000E01E
:1002B00006C021970109802FFE010E944612C63315
:1002C000D10780E00807A9F70E945D090C94541734
:1002D0000C940000FC01A089B18982E08C93A48574
:1002E000B5851C92A685B78583E38C93108EA4896F
:1002F000B58986E08C93A289B3898C9180618C93B7
:10030000A289B3898C9188608C93A289B3898C91DE
:1003100080688C930288F389E02D80818F7D8083B3
:10032000089590E0FC01EA5DFD4F249180529E4FBC
:10033000FC018491882399F090E0880F991FFC01BB
:10034000EA53FE4FA591B491FC01E455FE4F85910F
:1003500094918FB7F894EC91E22BEC938FBF0895B2
:100360008150823108F05AC0E82FF0E08827E45429
:10037000FE4F8F4F0C944612DC01E001CE01D401F8
:10038000D8010E02E301E901ED01F301F701FB01E0
:10039000010205020E0209020F0213028091800081
:1003A0008F77809380000895809180008F7DF9CFB2
:1003B00080918000877FF5CF84B58F7784BD0895C5
:1003C00084B58F7DFBCF8091B0008F778093B00094
:1003D00008958091B0008F7DF9CF809190008F7744
:1003E000809390000895809190008F7DF9CF809147
:1003F0009000877FF5CF8091A0008F778093A00039
:1004000008958091A0008F7DF9CF8091A000877F13
:10041000F5CF809120018F778093200108958091FE
:1004200020018F7DF9CF80912001877FF5CFCF9379
:10043000DF93282F30E0F901EA59FE4F8491F9014A
:10044000EA5DFD4FD491F901E052FE4FC491CC23F7
:10045000A1F081110E94B001EC2FF0E0EE0FFF1F20
:10046000E45BFE4FA591B491EC91ED2381E090E027
:1004700009F480E0DF91CF91089580E090E0FACF19
:100480003FB7F8948091570590915805A091590570
:10049000B0915A0526B5A89B05C02F3F19F00196CB
:1004A000A11DB11D3FBFBA2FA92F982F8827BC01CE
:1004B000CD01620F711D811D911D42E0660F771FF6
:1004C000881F991F4A95D1F708958F929F92AF92F6
:1004D000BF92CF92DF92EF92FF924B015C010E949C
:1004E00040026B017C010E9440026C197D098E095B
:1004F0009F09683E734081059105A8F321E0821AA7
:100500009108A108B10888EEC80E83E0D81EE11C4E
:10051000F11C81149104A104B10429F7FF90EF901C
:10052000DF90CF90BF90AF909F908F9008952FB79E
:10053000F894609153057091540580915505909100
:1005400056052FBF08950E949702EFEFF6E06283F1
:1005500073838483958380819181019691838083C5
:10056000089580913B038F5F80933B03853064F057
:1005700080913C038F5F80933C03823049F45F9A03
:1005800010923C0310923B0381E080933A0308955C
:100590005F98F8CFAF92BF92CF92DF92EF92FF9227
:1005A0000F931F93CF93DF936C017B018B01040F9B
:1005B000151FEB015E01AE18BF08C017D10759F037
:1005C0006991D601ED91FC910190F081E02DC60179
:1005D0001995892B79F7C501DF91CF911F910F9163
:1005E000FF90EF90DF90CF90BF90AF900895FC0107
:1005F000538D448D252F30E0842F90E0821B930B88
:10060000541710F0CF96089501970895FC01918D2D
:10061000828D981761F0A28DAE0FBF2FB11D5D9630
:100620008C91928D9F5F9F73928F90E008958FEFD2
:100630009FEF08950F931F930E94970260936305A5
:100640007093640580936505909366058BE595E04E
:100650000E94060397FF1DC00E9497020091630548
:10066000109164052091650530916605601B710B42
:10067000820B930B00915F0510916005209161053D
:10068000309162056017710782079307F8F28FEFC8
:100690009FEF1F910F910895FC01918D828D981706
:1006A00031F0828DE80FF11D858D90E008958FEF78
:1006B0009FEF0895FC01918D228D892F90E0805C41
:1006C0009F4F821B91098F73992708958BE595E0C1
:1006D0000E945A0321E0892B09F420E0822F08951B
:1006E00088EF95E00E945A0321E0892B09F420E06D
:1006F000822F0895FC01A48DA80FB92FB11DA35A14
:10070000BF4F2C91848D90E001968F739927848F31
:10071000A689B7892C93A089B1898C918370806454
:100720008C93938D848D981306C00288F389E02DF5
:1007300080818F7D80830895EF92FF920F931F93A6
:10074000CF93DF93EC0181E0888F9B8D8C8D981384
:100750001AC0E889F989808185FF15C09FB7F89490
:10076000EE89FF896083E889F989808183708064DC
:1007700080839FBF81E090E0DF91CF911F910F9127
:10078000FF90EF900895F62E0B8D10E00F5F1F4F36
:100790000F731127E02E8C8D8E110CC00FB607FC45
:1007A000FACFE889F989808185FFF5CFCE010E94D3
:1007B0007A03F1CFEB8DEC0FFD2FF11DE35AFF4FC4
:1007C000F0829FB7F8940B8FEA89FB898081806261
:1007D000CFCFCF93DF93EC01888D8823B9F0AA891E
:1007E000BB89E889F9898C9185FD03C0808186FDEC
:1007F0000DC00FB607FCF7CF8C9185FFF2CF80813B
:1008000085FFEDCFCE010E947A03E9CFDF91CF9132
:10081000089580E090E0892B29F00E9470038111F7
:100820000E94000080E090E0892B49F080E090E099
:10083000892B29F00E94000081110E94000080E0B5
:1008400090E0892B29F00E94660381110E9400002C
:1008500080E090E0892B49F080E090E0892B29F03E
:100860000E94000081110C940000089581E08093A3
:10087000890D8093ED0D95E09093510E8093B50E08
:100880008091190F90911A0F1816190624F01092E2
:100890001A0F1092190F90916B0782E080938A0DC6
:1008A00081E08093EE0D8093520E9093B60E80916E
:1008B000190F90911A0F029734F481E090E0909311
:1008C0001A0F8093190F90916D0782E080938B0D22
:1008D0008093EF0D81E08093530E9093B70E80913B
:1008E000190F90911A0F039734F482E090E09093DF
:1008F0001A0F8093190F90915F0983E080938C0DFC
:1009000081E08093F00D8093540E9093B80E809107
:10091000190F90911A0F049734F483E090E09093AC
:100920001A0F8093190F9091C30983E080938D0D66
:1009300021E02093F10D8093550E9093B90E809194
:10094000190F90911A0F059734F484E090E090937A
:100950001A0F8093190F90918B0A85E080938E0D6A
:1009600081E08093F20D8093560E9093BA0E8091A1
:10097000190F90911A0F069734F485E090E0909348
:100980001A0F8093190F8091550C9091F10B909351
:10099000AE038093AF03089580910B018062809332
:1009A0000B018FE99FE00197F1F700C00000E7EB32
:1009B000FBE081919091C80095FFFCCF8093CE0021
:1009C0008FE99FE00197F1F700C000009BE0EE3B4C
:1009D000F90779F78FE99FE00197F1F700C0000070
:1009E00080910B018F7D80930B01089542E050E0D0
:1009F00068E172E00C94CA020F931F93CF93DF93C8
:100A00008C01D0E0C0E06115710559F0FB01019047
:100A10000020E9F73197AF01461B570B0E94CA022D
:100A2000EC01C8010E94F6048C0F9D1FDF91CF914D
:100A30001F910F9108950F931F93CF93DF93CDB71D
:100A4000DEB7E2970FB6F894DEBF0FBECDBF1F92A0
:100A500021E02F939F938F938BE192E09F938F934D
:100A60008E010F5F1F4F1F930F930E947E14B801DA
:100A70008BE595E00E94FC04B80188EF95E00E94A8
:100A8000FC041092B50B0E94A3020FB6F894DEBFCF
:100A90000FBECDBFE2960FB6F894DEBF0FBECDBF3E
:100AA000DF91CF911F910F910895EFE5F9E06083F9
:100AB00071837F936F939F938F9387E292E09F93CD
:100AC0008F9385E097E09F938F930E947E1465E05B
:100AD00077E08BE595E00E94FC0465E077E088EF25
:100AE00095E00E94FC041092B50B8DB79EB7089656
:100AF0000FB6F8949EBF0FBE8DBF0C94A302CF9289
:100B0000DF92EF92FF92CF93DF93C091FF06D091D7
:100B10000007C817D907C9F5C0900107D090020790
:100B2000E0900307F0900407C40ED51EE61EF71EE2
:100B30000E9497026C157D058E059F0530F1DF93AD
:100B4000CF9387E392E09F938F9385E097E09F9305
:100B50008F930E947E1465E077E08BE595E00E941C
:100B6000FC0465E077E088EF95E00E94FC040F90BC
:100B70000F900F900F900F900F90DF91CF91FF90FB
:100B8000EF90DF90CF900C94A302DF91CF91FF9074
:100B9000EF90DF90CF900895262F30E03093C40976
:100BA0002093C3091F926F939F938F9382E492E0E7
:100BB0009F938F9385E097E09F938F930E947E147D
:100BC00065E077E08BE595E00E94FC0465E077E066
:100BD00088EF95E00E94FC041092B50B8DB79EB78C
:100BE00008960FB6F8949EBF0FBE8DBF0C94A3025B
:100BF000660F771FDB01A759B84F6D917C91119754
:100C0000E1E0F0E0042E02C0EE0FFF1F0A94E2F7CD
:100C1000222361F1E62BF72BED93FC931F922F9388
:100C20001F924F939F938F9383E592E09F938F93AF
:100C300085E097E09F938F930E947E1465E077E0B4
:100C40008BE595E00E94FC0465E077E088EF95E095
:100C50000E94FC041092B50B8DB79EB70A960FB692
:100C6000F8949EBF0FBE8DBF0C94A302E095F09543
:100C7000E623F723D1CF0F93E091FF06F091000711
:100C8000E817F90751F4011104C08091B50B8823CE
:100C900021F0CF010F910C94F8050F910895FF9268
:100CA0000F931F93CF93DF930091FF0610910007DE
:100CB0000817190709F086C0211105C08091B50BEE
:100CC000882309F47FC0EA01F62E60918B0A7091A7
:100CD0008C0A41E050E09A010F2C02C0220F331F12
:100CE0000A94E2F784E08F0D02C0440F551F8A95E5
:100CF000E2F740955095C901C130D10509F053C0C4
:100D0000862B972B8423952390938C0A80938B0AB0
:100D10009F938F9384E692E09F938F9385E097E073
:100D20009F938F930E947E1465E077E088EF95E0B3
:100D30000E94FC040F900F900F900F900F900F9057
:100D4000DF93CF931F92FF9280918C0A8F938091B3
:100D50008B0A8F931F930F938EE792E09F938F934D
:100D600085E097E09F938F930E947E1465E077E083
:100D70008BE595E00E94FC0465E077E088EF95E064
:100D80000E94FC041092B50B8DB79EB70C960FB65F
:100D9000F8949EBF0FBE8DBFDF91CF911F910F9131
:100DA000FF900C94A302809590958623972384232B
:100DB000952390938C0A80938B0A9F938F9381E75E
:100DC00092E0AACFDF91CF911F910F91FF900895EC
:100DD0000F931F93CF93DF93EC0188819981009744
:100DE00059F02A813B812617370730F081E0DF91E7
:100DF000CF911F910F9108958B016F5F7F4F0E94DC
:100E00007313009759F0998388831B830A832C817D
:100E10003D81232B59F7FC011082E8CF80E0E7CF1A
:100E20001F920F920FB60F9211242F933F938F931F
:100E30009F93AF93BF938091530590915405A091D8
:100E40005505B09156053091520523E0230F2D37FB
:100E500058F50196A11DB11D2093520580935305AD
:100E600090935405A0935505B0935605809157056E
:100E700090915805A0915905B0915A050196A11D70
:100E8000B11D8093570590935805A0935905B093D1
:100E90005A05BF91AF919F918F913F912F910F90E4
:100EA0000FBE0F901F90189526E8230F0296A11DE4
:100EB000B11DD2CF1F920F920FB60F9211240BB615
:100EC0000F922F933F934F935F936F937F938F93E3
:100ED0009F93AF93BF93EF93FF938BE595E00E94B1
:100EE0007A03FF91EF91BF91AF919F918F917F9185
:100EF0006F915F914F913F912F910F900BBE0F908B
:100F00000FBE0F901F9018951F920F920FB60F9261
:100F100011240BB60F922F938F939F93EF93FF9310
:100F2000E0916B05F0916C058081E0917105F09185
:100F3000720582FD1DC09081809174058F5F8F7353
:100F400020917505821741F0E0917405F0E0E55AB3
:100F5000FA4F958F80937405FF91EF919F918F9138
:100F60002F910F900BBE0F900FBE0F901F901895F2
:100F70008081F2CF1F920F920FB60F9211240BB601
:100F80000F922F933F934F935F936F937F938F9322
:100F90009F93AF93BF93EF93FF9388EF95E00E94E9
:100FA0007A03FF91EF91BF91AF919F918F917F91C4
:100FB0006F915F914F913F912F910F900BBE0F90CA
:100FC0000FBE0F901F9018951F920F920FB60F92A1
:100FD00011240BB60F922F938F939F93EF93FF9350
:100FE000E0910806F09109068081E0910E06F091EB
:100FF0000F0682FD1DC09081809111068F5F8F7357
:1010000020911206821741F0E0911106F0E0E850BD
:10101000FA4F958F80931106FF91EF919F918F91D9
:101020002F910F900BBE0F900FBE0F901F90189531
:101030008081F2CF1F920F920FB60F9211240BB640
:101040000F922F933F934F935F936F937F938F9361
:101050009F93AF93BF93EF93FF938091430390913E
:1010600044038093B2008091460390914703A0917E
:101070004803B09149030196A11DB11D8093460319
:1010800090934703A0934803B0934903809146038C
:1010900090914703A0914803B091490340913F03C9
:1010A000509140036091410370914203841795076A
:1010B000A607B70710F18091450381111EC081E09A
:1010C000809345038091460390914703A091480384
:1010D000B0914903841B950BA60BB70B8093460375
:1010E00090934703A0934803B0934903E0913D03D5
:1010F000F0913E03199510924503FF91EF91BF9136
:10110000AF919F918F917F916F915F914F913F919F
:101110002F910F900BBE0F900FBE0F901F90189540
:101120001F920F920FB60F9211240BB60F922F93AE
:101130003F934F935F938F939F93EF93FF93909180
:10114000CE009093B90C9F3FD1F48091BA0C8F3FA1
:10115000B1F481E08093BB0C1092BC0C9093BA0C5C
:10116000FF91EF919F918F915F914F913F912F91BF
:101170000F900BBE0F900FBE0F901F9018952091EF
:10118000BB0C213059F78091BC0CE82FF0E0E35400
:10119000F34F90838F5F8093BC0C8530F8F282E030
:1011A0008093BB0C8091BD0C3091B90B8313D6CFCB
:1011B0005091BE0C3091BA0B5313D0CF4091BF0C5D
:1011C0003091C00C850F840F830F80958093850D1F
:1011D0005091C10C8513C2CF4093870D3093880D79
:1011E0002093860DBBCFEBE5F5E01382128248EE2B
:1011F00053E060E070E044835583668377838AE040
:1012000092E09183808325ED30E03587248724EDBB
:1012100030E03787268720ED30E0318B208B21EDC1
:1012200030E0338B228B22ED30E0358B248B26EDA2
:1012300030E0378B268B118E128E138E148EE8EFD2
:10124000F5E013821282448355836683778391830A
:10125000808385EC90E09587848784EC90E0978785
:10126000868780EC90E0918B808B81EC90E0938B73
:10127000828B82EC90E0958B848B86EC90E0978B50
:10128000868B118E128E138E148E1092B60B81E007
:1012900080931B0F10920107109202071092030710
:1012A000109204071092B50B1092970610929806B0
:1012B0001092990610929A060895CF93DF9300D06A
:1012C00000D01F921F92CDB7DEB7789484B58260AC
:1012D00084BD84B5816084BD85B5826085BD85B5DA
:1012E000816085BD80916E00816080936E00109258
:1012F00081008091810082608093810080918100D3
:101300008160809381008091800081608093800063
:101310008091B10084608093B1008091B0008160C1
:101320008093B000809191008260809391008091C1
:101330009100816080939100809190008160809302
:1013400090008091A10082608093A1008091A10013
:1013500081608093A1008091A00081608093A000B3
:10136000809121018260809321018091210181601F
:1013700080932101809120018160809320018091E0
:101380007A00846080937A0080917A0082608093F2
:101390007A0080917A00816080937A0080917A004F
:1013A000806880937A001092C10086E20E949101C9
:1013B0008BE20E9491018CE20E949101E2E9F1E04E
:1013C0008491E2E5F2E00491ECE0F2E01491112363
:1013D00091F081110E94B001E12FF0E0EE0FFF1FAC
:1013E000E455FE4FA591B4918FB7F894EC91009518
:1013F0000E230C938FBF17B811B888EF95E00E94A9
:101400006A018BE595E00E946A011092C80088E9A4
:101410008093C9001092CD0089E18093CC0080E8D0
:101420008FBF6CED75E080E090E00E9465021F9236
:1014300081E08F931F928F9385E992E09F938F9322
:101440008AE493E09F938F930E947E146AE473E092
:1014500088EF95E00E94FC046CED75E080E090E080
:101460000E9465026EEA72E08AE493E00E945D14D5
:101470006AE473E088EF95E00E94FC0462EC72E09D
:1014800088EF95E00E94FC040FB6F894DEBF0FBE13
:10149000CDBF8091FF0690910007892B41F420E099
:1014A00044E061E070E090E080E00E94F805809107
:1014B000FF0690910007019741F421E045E061E0CB
:1014C00070E081E090E00E94F8058091FF06909125
:1014D0000007029741F421E046E061E070E082E01D
:1014E00090E00E94F8058091FF0690910007039715
:1014F00041F421E047E061E070E083E090E00E9489
:10150000F8058091FF0690910007049741F420E0D0
:1015100043E061E070E084E090E00E94F805809193
:10152000FF0690910007059741F421E042E061E059
:1015300070E085E090E00E94F8058091FF069091B0
:101540000007069741F421E041E061E070E086E0A9
:1015500090E00E94F8058091FF06909100070797A0
:1015600041F420E045E062E070E087E090E00E9416
:10157000F8058091FF0690910007089741F421E05B
:1015800046E062E070E088E090E00E94F80580911B
:10159000FF0690910007099741F421E047E062E0DF
:1015A00070E089E090E00E94F8058091FF0690913C
:1015B00000070A9741F420E043E062E070E08AE02F
:1015C00090E00E94F8058091FF06909100070B972C
:1015D00041F420E042E062E070E08BE090E00E94A5
:1015E000F8058091FF06909100070C9741F420E0E8
:1015F00041E062E070E08CE090E00E94F8058091AC
:10160000FF06909100070D9741F420E040E062E072
:1016100070E08DE090E00E94F80521E041E050E0AC
:1016200060E08EE090E00E944F0621E041E050E053
:1016300061E08FE090E00E944F068091FF0690915C
:101640000007409729F460E080E190E00E94CC051B
:101650008091FF0690910007419734F081E190E07E
:10166000909300078093FF066CEC72E088EF95E0A2
:101670000E94FC0468EE73E080E090E00E94650246
:101680000E94360482E390E0A0E0B0E080933F0344
:1016900090934003A0934103B093420381EB92E007
:1016A00090933E0380933D03809170008E7F8093E2
:1016B00070008091B0008C7F8093B0008091B10069
:1016C000877F8093B1008091B6008F7D8093B600B4
:1016D000809170008D7F809370008091B100846054
:1016E0008093B1008091B1008C7F8093B10086E03F
:1016F00090E090934403809343031092460310922A
:1017000047031092480310924903109245038091B9
:101710004303909144038093B200809170008160F4
:101720008093700060EA7FE080E090E00E946502B4
:101730000E94970260934E0570934F058093500569
:1017400090935105109200071092FF06772473942E
:10175000662463949DE5892E912C21E7C22E22E018
:10176000D22E3BE9E32E36E0F32E40E2A42E43E0F6
:10177000B42E20904E0530904F054090500550906B
:10178000510594E6290E311C411C511C0E94970200
:10179000621573058405950508F4ACC006E714E0EE
:1017A00086E1582EC8018657944008970CF0F4C083
:1017B000852D0E94170221E0892B09F420E0F80111
:1017C000208353940F5F1F4FF2E25F12EBCF8091A3
:1017D0001E0F90911F0F20911B0FFC01EA54F44F34
:1017E000222309F4DCC0DF01A150BD4F8C91A45627
:1017F000B1093C91A456B1092C91ED52FE4F908154
:101800004FEF4093B70B4093B80B9093B90B2093D5
:10181000BA0B3093BB0B8093BC0B830F820F890FE5
:1018200080958093BD0B1092BE0B0E94CC04109249
:101830001B0F1092860D809176048093E9048091AD
:1018400077048093EA048091780487258093EB04E1
:101850008091790487258093EC0480917A04872510
:101860008093ED0480917B0487258093EE04809122
:101870007C048093EF0480917D0487258093F0049D
:1018800080917E048093F10420917F04822F87252C
:101890008093F2048091AE03982F9095917090936D
:1018A000F30481FB992790F997259093F40482FB28
:1018B000992790F997259093F50483FB992790F940
:1018C00097259093F604829581708093F704209376
:1018D000F804809181048093F90487258093FA04A9
:1018E0000E94970260934E0570934F0580935005B8
:1018F0009093510580914D05882321F06092B50B9E
:1019000010924D050E9436048BE595E00E945A0323
:10191000181619060CF0EFC01A8219821C821B825D
:101920001E821D8270E060E0CE0101960E94E806F2
:1019300029813A818111A9C02115310519F0C90108
:101940000E94EA121A8219821E821D821C821B8248
:101950000E941A034D815E8197FD9FC08A309105D8
:1019600009F49BC08F8318868A010F5F1F4FB8014F
:10197000CE0101960E94E806882351F329813A811D
:101980008D819E81BE01695F7F4F820F931F0E94F0
:101990005D141E830D83DCCF84E0850D0ACF20917A
:1019A000860D222309F448C08091870D83AFE1564C
:1019B000FF4F8091880D808380911E0F90911F0FA3
:1019C000019690931F0F80931E0F2091190F309155
:1019D0001A0F2817390724F410921F0F10921E0FA8
:1019E00020911E0F30911F0F2A54344FF901E150FE
:1019F000FD4F8081E456F1095081E456F1094081A0
:101A00002D523E4FF90190812FEF2093B70B209379
:101A1000B80B9093B90B4093BA0B5093BB0B8093C8
:101A2000BC0B850F840F890F80958093BD0B10929E
:101A3000BE0B0E94CC04FDCEDF01A95CBD4F2C91F2
:101A40001F922F93ED52FE4F20811F922F939F9351
:101A50008F9386ED92E09F938F938FEB9BE09F9304
:101A60008F930E947E146FEB7BE08BE595E00E94E4
:101A7000FC046FEB7BE088EF95E00E94FC040FB65E
:101A8000F894DEBF0FBECDBF97CF1E821D826AE1E4
:101A900072E0C9010E945D145BCF4330510528F10B
:101AA00069817A8188EF95E00E94CA0288EF95E00B
:101AB0000E94F60469817A8185E894E00E945D14B1
:101AC00068EE72E085E894E00E946414892B09F4C2
:101AD000CDC461EF72E088EF95E00E94FC0464E001
:101AE00073E08BE595E00E94FC0489819A81009760
:101AF00011F00E94EA1240E355E760E070E090E0E8
:101B000080E00E947F050091E90421E041E062E06D
:101B100070E081E090E00E943B068091FF0690918A
:101B20000007029729F461E082E090E00E94CC0572
:101B30008091FF0690910007039731F461E070E017
:101B400083E090E00E9455050091F90421E044E013
:101B500061E070E084E090E00E943B060091EA04BE
:101B600021E044E061E070E085E090E00E943B0607
:101B70008091FF0690910007069741F421E040E034
:101B800062E070E086E090E00E94F8058091FF0638
:101B900090910007079741F420E041E062E070E097
:101BA00087E090E00E94F8058091FF069091000781
:101BB000089731F46EE370E088E090E00E945505EC
:101BC0008091FF0690910007099731F46EE370E071
:101BD00089E090E00E94550540ED57E060E070E03C
:101BE0008AE090E00E947F058091FF0690910007B7
:101BF0000B9741F420E045E061E070E08BE090E07D
:101C00000E94F8052091EB0450E040E060E08CE099
:101C100090E00E944F068091FF06909100070D977B
:101C200041F420E040E062E070E08DE090E00E944E
:101C3000F8058091FF06909100070E9741F421E08E
:101C400045E062E070E08EE090E00E94F80580914F
:101C5000FF06909100070F9731F462E070E08FE08B
:101C600090E00E9455058091FF06909100074097F3
:101C700029F460E180E190E00E94CC058091FF06AC
:101C800090910007419771F48091EC04811104C098
:101C90008091B50B882331F061E070E081E190E044
:101CA0000E9455058091FF0690910007429729F404
:101CB00061E082E190E00E94CC058091FF06909166
:101CC0000007439741F420E045E062E070E083E1E3
:101CD00090E00E94F8058091FF06909100074497DC
:101CE00041F421E040E062E070E084E190E00E9495
:101CF000F8058091FF0690910007459741F420E098
:101D000044E061E070E085E190E00E94F80540E188
:101D100057E260E070E086E190E00E947F0521E0FC
:101D200041E050E060E087E190E00E944F060091C2
:101D3000E90421E043E062E070E088E190E00E9485
:101D40003B068091FF0690910007499731F463E0CC
:101D500070E089E190E00E9455058091FF06909126
:101D600000074A9741F421E042E062E070E08AE136
:101D700090E00E94F8058091FF06909100074B9734
:101D800041F420E046E061E070E08BE190E00E94E9
:101D9000F8050091EF0420E042E062E070E08CE1A1
:101DA00090E00E943B068091FF06909100074D97BE
:101DB00041F420E040E062E070E08DE190E00E94BC
:101DC000F8058091FF06909100074E9741F420E0BE
:101DD00043E062E070E08EE190E00E94F8058091BF
:101DE000FF06909100074F9729F460E08FE190E0A3
:101DF0000E94CC0540ED5BEF61E070E080E290E096
:101E00000E947F0521E050E040E061E081E290E047
:101E10000E944F068091FF0690910007829731F44F
:101E200064E070E082E290E00E9455058091FF0638
:101E300090910007839729F462E083E290E00E948A
:101E4000CC0540E355E760E070E084E290E00E945A
:101E50007F058091FF0690910007859741F421E06E
:101E600040E062E070E085E290E00E94F8050091B9
:101E7000F00421E044E062E070E086E290E00E943D
:101E80003B068091FF0690910007879721F481E03F
:101E900090E00E941B050091F10420E047E061E022
:101EA00070E088E290E00E943B068091FF069091EE
:101EB0000007899741F420E047E062E070E089E2A2
:101EC00090E00E94F8050091F80421E044E062E00F
:101ED00070E08AE290E00E943B060091F20421E06B
:101EE00044E062E070E08BE290E00E943B0680916B
:101EF000FF06909100078C9741F421E043E061E0F8
:101F000070E08CE290E00E94F8058091FF069091CD
:101F100000078D9769F48091F804811104C08091C5
:101F2000B50B882329F064E08DE290E00E94CC0597
:101F30008091FF06909100078E9731F465E070E084
:101F40008EE290E00E9455058091FF069091000777
:101F50008F9721F482E090E00E941B050091F70426
:101F600020E044E062E070E080E390E00E943B0605
:101F70008091FF0690910007C19729F46AE081E300
:101F800090E00E94CC058091FF0690910007C297D7
:101F900031F466E070E082E390E00E945505009124
:101FA000F40420E042E061E070E083E390E00E940E
:101FB0003B060091F30420E046E062E070E084E339
:101FC00090E00E943B0640E25EE460E070E085E362
:101FD00090E00E947F058091FF0690910007C697D0
:101FE00041F421E046E062E070E086E390E00E9488
:101FF000F8058091FF0690910007C79741F421E012
:1020000047E062E070E087E390E00E94F80540E47A
:1020100056E060E070E088E390E00E947F058091E8
:10202000FF0690910007C99741F420E046E062E086
:1020300070E089E390E00E94F8058091FF0690919E
:102040000007CA9741F420E047E062E070E08AE3CD
:1020500090E00E94F80540E456E060E070E08BE319
:1020600090E00E947F058091FF0690910007CC9739
:1020700041F421E046E062E070E08CE390E00E94F1
:10208000F8058091FF0690910007CD9741F421E07B
:1020900047E062E070E08DE390E00E94F80540E4E4
:1020A00056E060E070E08EE390E00E947F05809152
:1020B000FF0690910007CF9741F420E046E062E0F0
:1020C00070E08FE390E00E94F8058091FF06909108
:1020D00000078034910541F420E047E062E070E0C1
:1020E00080E490E00E94F80540E456E060E070E093
:1020F00081E490E00E947F058091FF0690910007A7
:102100008234910541F421E046E062E070E082E42F
:1021100090E00E94F8058091FF06909100078334BB
:10212000910541F421E047E062E070E083E490E053
:102130000E94F80540E456E060E070E084E490E03E
:102140000E947F058091FF069091000785349105DC
:1021500041F420E046E062E070E085E490E00E9417
:10216000F8058091FF06909100078634910541F4AF
:1021700020E047E062E070E086E490E00E94F8052D
:1021800040E456E060E070E087E490E00E947F0564
:102190008091FF06909100078834910541F421E079
:1021A00046E062E070E088E490E00E94F8058091EB
:1021B000FF06909100078934910541F421E047E042
:1021C00062E070E089E490E00E94F80540E456E0A7
:1021D00060E070E08AE490E00E947F058091FF0655
:1021E000909100078B34910541F420E046E062E0D5
:1021F00070E08BE490E00E94F8058091FF069091DA
:1022000000078C34910541F420E047E062E070E083
:102210008CE490E00E94F80540E456E060E070E055
:102220008DE490E00E947F058091FF069091000769
:102230008E34910541F421E046E062E070E08EE4E6
:1022400090E00E94F8058091FF06909100078F347E
:10225000910541F421E047E062E070E08FE490E016
:102260000E94F80540E456E060E070E080E590E010
:102270000E947F058091FF069091000781359105AE
:1022800041F420E046E062E070E081E590E00E94E9
:10229000F8058091FF06909100078235910541F481
:1022A00020E047E062E070E082E590E00E94F805FF
:1022B0000091E90420E041E061E070E083E590E016
:1022C0000E943B068091FF0690910007843591059E
:1022D00029F460E084E590E00E94CC052091F504AB
:1022E00041E050E061E085E590E00E944F0680917A
:1022F000FF06909100078635910541F421E045E005
:1023000062E070E086E590E00E94F8058091FF06AB
:10231000909100078735910531F462E070E087E520
:1023200090E00E9455058091FF0690910007883546
:10233000910529F460E188E590E00E94CC0548E829
:1023400053E160E070E089E590E00E947F058091B4
:10235000FF06909100078A35910569F48091F90490
:10236000811104C08091B50B882329F060E08AE5D3
:1023700090E00E94CC058091FF06909100078B357C
:10238000910541F420E045E062E070E08BE590E0EB
:102390000E94F8052091ED0450E040E061E08CE5FA
:1023A00090E00E944F068091FF06909100078D35C6
:1023B000910524F0909200078092FF068091950687
:1023C00090919606892B09F04EC08091ED048823E8
:1023D00009F449C000918B0A10918C0A0E7E1F935C
:1023E0000F93DF92CF92FF92EF920E947E146BE9DF
:1023F00076E088EF95E00E94FC041F921F921F92E6
:102400001F921F930F931F921F92BF92AF92FF9242
:10241000EF920E947E146BE976E08BE595E00E94D6
:10242000FC046BE976E088EF95E00E94FC041093D1
:102430008C0A00938B0A0E94970260939706709310
:1024400098068093990690939A06809195069091AC
:102450009606019690939606809395060FB6F8948B
:10246000DEBF0FBECDBF0E94090483C96DE073E0DB
:1024700085E894E00E946414892B09F436CB6092BD
:102480004D0563E173E088EF95E02DCBEE0FFF1F64
:10249000881F8BBF0790F691E02D19940F931F931F
:1024A000CF93DF938230910510F482E090E0E091C9
:1024B000220FF091230F30E020E0B0E0A0E0309751
:1024C00099F42115310509F44AC0281B390B243031
:1024D0003105D8F58A819B816115710589F1FB0170
:1024E00093838283FE0111C0408151810281138157
:1024F00048175907E0F04817590799F4109761F009
:1025000012960C93129713961C933296CF01DF917B
:10251000CF911F910F9108950093220F1093230FD5
:10252000F4CF2115310551F04217530738F0A901B6
:10253000DB019A01BD01DF01F801C1CFEF01F9CF45
:102540009093230F8093220FCDCFFE01E20FF31F54
:10255000819391932250310939832883D7CF2091D9
:10256000200F3091210F232B41F420910202309152
:1025700003023093210F2093200F2091000230910D
:1025800001022115310541F42DB73EB740910402F7
:1025900050910502241B350BE091200FF091210F83
:1025A000E217F307A0F42E1B3F0B2817390778F02A
:1025B000AC014E5F5F4F2417350748F04E0F5F1F89
:1025C0005093210F4093200F819391939FCFF0E080
:1025D000E0E09CCFCF93DF930097E9F0FC013297C6
:1025E00013821282A091220FB091230FED0130E0EF
:1025F00020E01097A1F420813181820F931F209158
:10260000200F3091210F2817390709F061C0F0938E
:10261000210FE093200FDF91CF910895EA01CE17AB
:10262000DF07E8F54A815B819E0141155105B1F74D
:10263000E901FB83EA8349915991C40FD51FEC1737
:10264000FD0761F4808191810296840F951FE90155
:1026500099838883828193819B838A83F0E0E0E081
:1026600012968D919C9113970097B9F52D913C91FD
:102670001197CD010296820F931F2091200F309168
:10268000210F2817390739F6309751F51092230F8B
:102690001092220FB093210FA093200FBCCFD383B1
:1026A000C28340815181840F951FC817D90761F4F7
:1026B0004E5F5F4F88819981480F591F5183408336
:1026C0008A819B81938382832115310509F0B0CFE4
:1026D000F093230FE093220F9ECFFD01DC01C0CFCA
:1026E00013821282D7CF4F925F926F927F928F9216
:1026F0009F92AF92BF92CF92DF92EF92FF920F9391
:102700001F93CF93DF938C01009799F4CB01DF9156
:10271000CF911F910F91FF90EF90DF90CF90BF90DE
:10272000AF909F908F907F906F905F904F900C94A0
:102730004E12FC01E60FF71F9C0122503109E217EF
:10274000F30708F4AEC0D901CD91DC911197C617FB
:10275000D70720F1C530D10578F0CE010497861750
:10276000970750F0C61BD70B2297C193D1936D9357
:102770007C93CF010E94EA12C801DF91CF911F9193
:102780000F91FF90EF90DF90CF90BF90AF909F9010
:102790008F907F906F905F904F9008955B01AC1A7F
:1027A000BD0A4C018C0E9D1EA091220FB091230FEB
:1027B000512C412CF12CE12C109731F58091200FF8
:1027C0009091210F8815990509F05CC046165706AF
:1027D00008F058C08091000290910102009741F4E6
:1027E0008DB79EB74091040250910502841B950B52
:1027F000E817F90708F055C0F093210FE093200F78
:10280000F90171836083B8CF8D919C9111971296D5
:102810006C90129713967C901397A815B90559F5EB
:102820006C0142E0C40ED11CCA14DB0420F1AC01DF
:102830004A195B09DA011296159780F06282738259
:1028400051834083D9016D937C93E114F10471F0BD
:10285000D7011396FC93EE9312978ECF22968C0F8E
:102860009D1FF90191838083F301EFCFF093230F34
:10287000E093220F81CF4816590608F42C017D0100
:10288000D3019ACFCB010E944E127C01009749F0F0
:10289000AE01B8010E945414C8010E94EA128701D7
:1028A0006BCF10E000E068CFFB01DC0102C00190BB
:1028B0000D9241505040D8F70895FB01DC01019082
:1028C0000D920020E1F70895FB0151915523A9F0E5
:1028D000BF01DC014D9145174111E1F759F4CD01DC
:1028E0000190002049F04D9140154111C9F3FB01C1
:1028F0004111EFCF81E090E0019708950F931F936E
:10290000CF93DF93CDB7DEB72E970FB6F894DEBF27
:102910000FBECDBF0E891F8986E08C831A83098381
:102920008FEF9FE79E838D83AE01465E5F4F688D7C
:10293000798DCE0101960E94AE142F813885020F49
:10294000131FF80110822E960FB6F894DEBF0FBE4B
:10295000CDBFDF91CF911F910F9108952F923F929C
:102960004F925F926F927F928F929F92AF92BF929F
:10297000CF92DF92EF92FF920F931F93CF93DF934B
:1029800000D000D000D01F921F92CDB7DEB77C01DF
:102990003B018A01FC0117821682838181FFDDC120
:1029A000CE0101965C01F7019381F30193FD8591BE
:1029B00093FF81913F01882309F453C1853239F493
:1029C00093FD859193FF81913F01853229F4B701F1
:1029D00090E00E94C616E7CF912C212C312CFFE10C
:1029E000F31538F08B3211F190F4803209F1833213
:1029F00029F137FC3CC020ED280F2A3050F536FE77
:102A000020C08AE0989E200D1124922E06C08D329F
:102A100091F0803371F7689430F8F30193FD85915C
:102A200093FF81913F018111DACF21C0689431F881
:102A3000689432F8F2CF689433F8EFCF689434F8A2
:102A4000ECCFEAE02E9E200D1124222E689435F85A
:102A5000E4CF8E3229F436FC04C1689436F8DDCF19
:102A60008C3619F4689437F8D8CF8836B1F2982F9D
:102A70009F7D95549330E0F08336A1F18337C1F107
:102A8000833509F063C02801F2E04F0E511CF801B4
:102A9000C080D180692D70E036FC02C06FEF7FEFFF
:102AA000C6010E94B0164C01689437F882010AC032
:102AB0000C5F1F4FFFE3F98388248394912C6501F9
:102AC000E89437F833FE2DC0522C8114910471F52F
:102AD000552009F468CFB70180E290E00E94C61645
:102AE0005A94F6CFF801808189830E5F1F4FE4CF9F
:102AF0002801F2E04F0E511CF801C080D180692DF1
:102B000070E036FC02C06FEF7FEFC6010E94BB167B
:102B10004C018201D5CFB70180E290E00E94C61639
:102B20002A942814190409F0B0F7CECFF60137FC27
:102B3000859137FE81916F01B70190E00E94C61622
:102B400051105A94F1E08F1A9108BFCF843619F0D2
:102B5000893609F077C0F80137FE6BC0608171815A
:102B6000828193810C5F1F4FF32DFF763F2E97FFDD
:102B700009C090958095709561957F4F8F4F9F4FBD
:102B8000689437F82AE030E0A5010E94F616C82EB6
:102B9000CA188C2C432C36FE0CC0E89440F8C9149B
:102BA00040F434FE05C032FC03C0F32DFE7E4F2EF0
:102BB000892C44FEAAC0FE01EC0DF11D80818033FA
:102BC00009F09CC0242D297E422E842D8870582E19
:102BD00043FCAAC040FEA4C09C2C821418F42C0C08
:102BE000922C981844FEA6C0B70180E390E00E94A2
:102BF000C61642FE09C088E790E041FE02C088E5A3
:102C000090E0B7010E94C616C91408F49FC0CA9488
:102C1000D12C9FEFC91AD90ACA0CDB1CF60182918C
:102C20006F01B70190E00E94C616AC14BD04B1F765
:102C30004FCF60817181072E000C880B990B0E5FBE
:102C40001F4F92CFD32CE894D4F82AE030E0853798
:102C5000E1F1232D297FD22E8F36A9F1F0F48835AA
:102C600051F1F701868197812B960FB6F894DEBF5C
:102C70000FBECDBFDF91CF911F910F91FF90EF90CD
:102C8000DF90CF90BF90AF909F908F907F906F908C
:102C90005F904F903F902F900895803749F088378C
:102CA00001F7D4FE02C06894D2F820E130E00DC0F4
:102CB0006894D4F8F6CF34FE03C0822F8660D82EF5
:102CC00020E132E002C028E030E0F801D7FE0FC07A
:102CD00060817181828193810C5F1F4FA5010E94E9
:102CE000F616C82ECA183D2CE89437F852CF6081EA
:102CF000718190E080E00E5F1F4FF0CF42FC02C078
:102D0000839463CF8394839460CF842D867809F471
:102D10005CCFF6CFB70180E290E00E94C6168394A4
:102D20008214C0F3512C5ECF522C5818821408F430
:102D300059CFF8CF842D867809F466CF8BE241FE17
:102D400080E247FC8DE2B70190E05CCFB70180E301
:102D500090E00E94C6169A9457CF8FEF9FEF84CFD2
:102D6000FC010590615070400110D8F78095909556
:102D70008E0F9F1F0895FC0161507040019001105B
:102D8000D8F7809590958E0F9F1F08950F931F93EE
:102D9000CF93DF93182F092FEB018B8181FD09C0A1
:102DA0001FEF0FEF812F902FDF91CF911F910F9188
:102DB000089582FF14C02E813F818C819D81281748
:102DC00039073CF4E881F981CF0101969983888322
:102DD00010838E819F8101969F838E83E3CFE88548
:102DE000F985812F1995892BA1F3DACFFA01AA274A
:102DF000283051F1203181F1E8946F936E7F6E5F3E
:102E00007F4F8F4F9F4FAF4FB1E03ED0B4E03CD0EB
:102E1000670F781F891F9A1FA11D680F791F8A1FCE
:102E2000911DA11D6A0F711D811D911DA11D20D035
:102E300009F468943F912AE0269F11243019305DEF
:102E40003193DEF6CF010895462F4770405D4193E0
:102E5000B3E00FD0C9F7F6CF462F4F70405D4A332D
:102E600018F0495D31FD4052419302D0A9F7EACFF5
:102E7000B4E0A6959795879577956795BA95C9F724
:102E800000976105710508959B01AC010A2E069417
:102E90005795479537952795BA95C9F7620F731FD0
:0C2EA000841F951FA01D0895F894FFCF1B
:102EAC000000240F8000000000009C03CA02F702FF
:102EBC00E9035A0306034C030D0A002345574B2C18
:102ECC0025642C25642C002457256420534F554E23
:102EDC00443A202564200024572564205741495446
:102EEC0020002457256420534F554E445F434820FF
:102EFC002564002457256420524C5F522025642001
:102F0C00256420004D20736574626974202564204B
:102F1C00004D20434C5262697420256420002457D4
:102F2C002564204D4F544F525B25645D2025642D44
:102F3C003E256420004953435F4D41494E5F762541
:102F4C00642E25642053746172742E2E2E00444519
:102F5C0056494345205363616E207374617274212A
:102F6C00210052455345542E2E2E2E0052455345CA
:102F7C0054204F4B2100242564204641494C3A41B2
:102F8C00256420442564200023495343414E443199
:102F9C000045535033322D3E2023495343412C31AD
:102FAC00204F4B002423495343412C3100244A55D4
:102FBC004D500045535033322D3E204A554D500054
:102FCC00244D542D572564204D4F544F525B25648E
:0A2FDC005D2025642D3E25642000D1
:00000001FF
